S00C0000706F72742E7372656353
S113000078240020610100005D0100005D01000012
S113001000000000000000000000000000000000DC
S11300200000000000000000000000005D0100006E
S113003000000000000000005D0100005D01000000
S11300405D0100005D0100005D0100005D01000034
S11300505D0100005D0100005D0100005D01000024
S11300605D0100005D0100005D0100005D01000014
S11300705D0100005D0100005D0100005D01000004
S11300805D0100005D0100005D0100005D010000F4
S11300905D0100005D0100005D0100005D010000E4
S11300A05D0100005D0100005D0100005D010000D4
S11300B00000000010B5064C2378002B07D1054B37
S11300C0002B02D0044800E000BF0123237010BDC0
S11300D0340400200000000008040000084B10B5A0
S11300E0002B03D00749084800E000BF0748036815
S11300F0002B00D110BD064B002BFBD09847F9E72D
S11301000000000038040020080400000804000077
S11301100000000006220B4B10B51A7080220A4B17
S113012012021A6080230948DB0501681943016043
S1130130074808490468144202D0074C2360F9E7D1
S11301400B60F7E74F4400411844004188440041E4
S1130150204400419444004198440041FEE70000DB
S11301602148224970B5884204D00023204CCA1883
S1130170A24232D300211F4B1F4A934231D3FF21A5
S11301801E4B1F4A8B43936002220C250824302601
S11301901C4B1D485A62C378FC398B431343C3700C
S11301A0C378AB432343C370184B987BB04306001A
S11301B0202030439873987BA84304439C73987B16
S11301C0884302439A738023114A51680B43536056
S11301D0104B9847104B9847FEE7C55804331560F9
S11301E0C5E702C3C9E7C0460804000000000020B8
S11301F034040020340400207404002000000000B3
S113020000ED00E0FC700041005000410048004156
S113021000400041410200002D020000014A024B4F
S11302201A60704740420F0000000020024B10B5D6
S11302309847024B9847FEE71D0200001501000095
S113024070B50D4E0D4D0024AD1BAD1005D0A300AF
S1130250F35801349847A542F9D100F0C3F8084E89
S1130260084D0024AD1BAD1005D0A300F358013494
S11302709847A542F9D170BDF0030000F0030000D7
S1130280F0030000F8030000034B10B5002B02D06C
S1130290024800F005F810BD00000000B1020000A3
S11302A010B5010000230022002000F01FF810BD4B
S11302B070B5094B094CE41AA41009D0084AA518D2
S11302C0AD00ED182B68013C9847043D002CF9D192
S11302D000F092F870BDC046040400000804000059
S11302E0FFFFFF3F7047C0467047C046F0B54E461B
S11302F04546DE465746E0B5364D83B006002868CD
S113030098460F009146FFF7EDFF334B1C68A4237A
S11303105B00E058002852D043681F2B13DC5A1CA2
S11303200192002E28D1019A02339B0042601F5093
S11303302868FFF7D9FF002003B03CBC90469946DB
S1130340A246AB46F0BD254B002B3DD0C820400053
S113035000E000BF002837D0A42200235200A15897
S113036043600160A0504032835004328350013313
S113037001930023002ED6D09A00924682444A4626
S1130380882154466250C4225200914681444A4610
S11303908739994012688B460A4394464A46614617
S11303A01160842241465200A150022EBBD10200AA
S11303B05C468D32FF3211680C431460B3E72000B1
S11303C04D30FF30E050A7E72868FFF78DFF01208C
S11303D04042B1E730040020E003000000000000C8
S11303E008000020F8B5C046F8BC08BC9E4670471B
S11303F089020000DD000000F8B5C046F8BC08BC66
S10B04009E467047B5000000A0
S113040840420F000000000000000000F402002039
S11304185C030020C403002000000000000000006A
S113042800000000000000000000000000000000C0
S113043800000000000000000000000000000000B0
S113044800000000000000000000000000000000A0
S11304580000000000000000000000000000000090
S11304680000000000000000000000000000000080
S11304780000000000000000000000000000000070
S11304880000000000000000000000000000000060
S11304980000000000000000000000000000000050
S11304A80000000000000000000000000000000040
S11304B801000000000000000E33CDAB34126DE6DD
S11304C8ECDE05000B000000000000000000000046
S11304D80000000000000000000000000000000010
S11304E80000000000000000000000000000000000
S11304F800000000000000000000000000000000F0
S113050800000000000000000000000000000000DF
S10708385004002044
S9030000FC
